:101E00007401D18D740A75F0FFD5F0FDD5E0F7228D
:101E10009023007488F0D27E7521007430D1A2D155
:101E2000047430D1A27430D1A27420D1A27428D10C
:101E30008D7408D18DD1007406D18D740CC18DC004
:101E4000E0C0D0D14CD0D0D0E022E51DB45C1A0562
:101E50001CE51CB404005052B4010274C0B4020268
:101E60007494B4032874D48024751C0010E71EB445
:101E70002000501DB4080C7404D18D7420D19174CD
:101E800006800AB40C02C100B40D1F7402C208809F
:101E900002D208F5F054F04521D1ABE5F0C454F07E
:101EA0004521D1AB75F03CD5F0FD22902000C0A8B3
:101EB000C2AFF0D2E1F0C2E1F0D0A82274F0C2E4E7
:101EC000F11475F001702B74F0C2E5F11475F00592
:101ED000702030021674F0C2E6F11475F009701229
:101EE00074F0C2E7F11475F00D7007C20175F000CF
:101EF000801820E40C05F020E50705F020E6020537
:101F0000F0E51BD201B5F002C20185F01B300303DE
:101F10003001A922902000F0902200E0440FF4222A
:0A1FC400C110C100C18BC14AC1BCAD
:061FE100000000021E3F9B
:001FE701F9
