:101E00007401D18B740A75F0FFD5F0FDD5E0F7228F
:101E1000907EFFD27E7430D193D1047430D193740C
:101E200030D1937438D1937408D193D1007406D112
:101E300093740CC193C0E0C0D0C082C083D14AD09B
:101E400083D082D0D0D0E022E51DB45C1A051CE519
:101E50001CB40400504AB4010274C0B40202749469
:101E6000B4032874D48024751C0010E71EB420002D
:101E7000501EB4080C7404D18B7420D19074068069
:101E80000AB40C02C100B40D177402907EFF8003E7
:101E9000907FFFC0A8C2AFF0D0A875F03CD5F0FD90
:101EA000229062FFE0F4540F75F001702E9064FFF1
:101EB000E0F4540F75F00270223002189068FFE0D1
:101EC000F4540F75F00370139070FFE0F4540F7525
:101ED000F0047007C20175F000802A20E31E05F0AF
:101EE00005F005F005F020E21305F005F005F0051A
:101EF000F020E10805F005F005F005F0E51BD20142
:0F1F0000B5F002C20185F01B30030330019322BC
:0A1FC400C110C100C189C148C1A1CC
:061FE100000000021E35A5
:001FE701F9
