:0300000002009269
:06000300021FE7021FDAF4
:08000B00021FEAA1570209825D
:06001300021FED021FE4D4
:08001B00021FF0021FE1219613
:06002300021FF302CF9B57
:07002B00021FF621A8215578
:10003300021FF975A020438702000022C0E0C0D050
:10004300C00053D0E7E58A2402F58A758CC4783062
:1000530006B63C34E4F6D21820770EC2CA85CCCA61
:10006300F5CCD2CA85CDCBF5CD0806B63C1AF60839
:1000730006B63C14F60806B6180EF60806B60701CF
:10008300F60806B600020806D000D0D0D0E032E46D
:10009300F5D0F57FF57EF5237581B3120A467573A6
:1000A3000875985A758921758DFD75885075C8072F
:1000B300E4901FEA93B4020375A88275A010790037
:1000C300E364FF6009D57FFDD57EFA020BBA319652
:1000D3000D58706C6F722054494E59204241534958
:1000E300432056312E3164202843293139393620B3
:1000F300426C756520456172746820526573656151
:100103007263688D020B82307F07307304111E8087
:10011300073098FDE599C298547F20710FB4030C02
:1001230031960D574841543F8D020B84B461004012
:1001330007B47B00500254DF22307508207112305F
:10014300980F80C330980A310AB41305310AB411E9
:10015300FB22307E0530730201163099FDC299F5FA
:1001630099B40D0A3099FDC29975990A8004C3D5D3
:100173007304757308D3227420315550FA22540F37
:10018300700320780DC2782430B43A00400224076B
:10019300315522D083D082E493A310E704315580F4
:1001A300F63155E4733196534F525259218D020B58
:1001B30084A937B9390040ED8707198706198937AC
:1001C3001922A937E7153722A937B96F0050D60985
:1001D300A70609A707893722A937B96F0050C6199F
:1001E300E70987F009F709A7F0893722D083D0827E
:1001F300E4930537A937B9710280AAF77401D37361
:10020300F580E58022F581E58122F582E58222F5FC
:1002130083E58322F584E58422F585E58522F58649
:10022300E58622F587E58722F588E58822F589E5C5
:100233008922F58AE58A22F58BE58B22F58CE58CFC
:1002430022F58DE58D22F58EE58E22F58FE58F2241
:10025300F590E59022F591E59122F592E59222F54C
:1002630093E59322F594E59422F595E59522F59689
:10027300E59622F597E59722F598E59822F599E515
:100283009922F59AE59A22F59BE59B22F59CE59C3C
:1002930022F59DE59D22F59EE59E22F59FE59F2291
:1002A300F5A0E5A022F5A1E5A122F5A2E5A222F59C
:1002B300A3E5A322F5A4E5A422F5A5E5A522F5A6C9
:1002C300E5A622F5A7E5A722F5A8E5A822F5A9E565
:1002D300A922F5AAE5AA22F5ABE5AB22F5ACE5AC7C
:1002E30022F5ADE5AD22F5AEE5AE22F5AFE5AF22E1
:1002F300F5B0E5B022F5B1E5B122F5B2E5B222F5EC
:10030300B3E5B322F5B4E5B422F5B5E5B522F5B608
:10031300E5B622F5B7E5B722F5B8E5B822F5B9E5B4
:10032300B922F5BAE5BA22F5BBE5BB22F5BCE5BCBB
:1003330022F5BDE5BD22F5BEE5BE22F5BFE5BF2230
:10034300F5C0E5C022F5C1E5C122F5C2E5C222F53B
:10035300C3E5C322F5C4E5C422F5C5E5C522F5C648
:10036300E5C622F5C7E5C722F5C8E5C822F5C9E504
:10037300C922F5CAE5CA22F5CBE5CB22F5CCE5CCFB
:1003830022F5CDE5CD22F5CEE5CE22F5CFE5CF2280
:10039300F5D0E5D022F5D1E5D122F5D2E5D222F58B
:0E03A300D3E5D322F5D4E5D422F5D5E5D52255
:1003B100F5D6E5D622F5D7E5D722F5D8E5D822F549
:1003C100D9E5D922F5DAE5DA22F5DBE5DB22F5DC40
:1003D100E5DC22F5DDE5DD22F5DEE5DE22F5DFE512
:1003E100DF22F5E0E5E022F5E1E5E122F5E2E5E2F3
:1003F10022F5E3E5E322F5E4E5E422F5E5E5E5228E
:10040100F5E6E5E622F5E7E5E722F5E8E5E822F598
:10041100E9E5E922F5EAE5EA22F5EBE5EB22F5EC7F
:10042100E5EC22F5EDE5ED22F5EEE5EE22F5EFE561
:10043100EF22F5F0E5F022F5F1E5F122F5F2E5F232
:1004410022F5F3E5F322F5F4E5F422F5F5E5F522DD
:10045100F5F6E5F622F5F7E5F722F5F8E5F822F5E8
:10046100F9E5F922F5FAE5FA22F5FBE5FB22F5FCBF
:10047100E5FC22F5FDE5FD22F5FEE5FE22F5FFE5B1
:10048100FF22C27B31B431C5307B06053705370504
:10049100379004B89373C27B31B48E798F7A31B4BB
:1004A10031C5307B060537053705379004B19373A5
:1004B10057646AA0B362A9ADBBC1CDD7B9EDC27211
:1004C1008002D272FEE910760310E708EE20720274
:1004D100F722E72275F005A4307204240580022476
:1004E10003C0E0E5F03402C0E0EE22EE54F820E76C
:1004F1000423C42420F9EE5407240383F57C22014C
:1005010002040810204080EE232480F9A77909A76E
:100511007A22D276EEF9E57980A491ECB990139024
:10052100077EE579A2E0C0D0EE540775F003A4D0B0
:10053100D073B9B00590079680E891C3F57DE57950
:1005410020E007E57CF4557D81BFE57C457D81BFD9
:100551008FA0EEF9E579020E9CC2CA8579CC857A25
:10056100CDD2CA22EE232480F9E7FE09E7FF21CB91
:10057100D276EEF991C3801191EC91C3557C24FFA1
:10058100E43380058FA0EEF9E37F00FE21CB8E29B5
:10059100C29612CF9B7E14DEFE12CF9BD296AF2B5A
:1005A100AE2A21CBA2AFC2AF307708D2CBB291B283
:1005B10091C2CBAECAAFCB92AF21CB24D0B40A004B
:1005C1005005FE7F00C27D22207D4124D0B40A0067
:1005D100401330743724EFB406004007B4072DD21E
:1005E1007DD322240ACE75F00A30740375F010C051
:1005F100F0A42EFEE435F0CFD0F0A42FFF72E7E592
:10060100F034FFB0744002D322301C02C322319671
:10061100484F573F8D020B84A2D2B07440F022E7BD
:100621002EF709E73FF72231B4D12080EB31B4C373
:10063100E79EF709E79FF780DF31B4E75EF709E747
:100641005FF72231B4E74EF709E74FF72231B4E7FC
:100651006EF709E76FF722C3B27AA93719E497F762
:1006610009E497F780B2D380F1A937E7A2E7B07424
:1006710040E522207AE122A9371907B700020907CC
:1006810022C2D5A937E76005EF6002D2D519E78FFD
:10069100F0A430D202D2D509C78EF0A430D202D252
:1006A100D527F772D592D519E78EF0A4F7E5F009B1
:1006B10027F772D572E792D222C27AD16A31B4D1C8
:1006C1006AD182D119D17422D27C8002C27CD27AC1
:1006D100D16AD15831B4EE4F7002C10FA27AB07C09
:1006E100927AD16AF57A198779E4F57CF57B7D11E7
:1006F100C38017E57B33F57BC57C33C57C2EF57D47
:10070100E57C3F5005857D7BF57CE57933F579E521
:100711007A33F57ADDDD207C07A77909A77A800590
:0E072100A77B09A77CD17422AE7EAF7F31CBBF
:10072F007E557F62D1827E197F36A93719D120314C
:10073F00B4BE0007BF80047E2A7F318E7E8F7F314B
:10074F00CB2231B431C5F5F0A93719C3E79E09C7DC
:10075F002074066480CF6480CF9F477004A2F1801D
:10076F00084004A2F08002A2F2E4F73319F72292B4
:10077F009022929122929222929322929422929577
:10078F002292962292972292B02292B12292B22274
:10079F0092B32292B42292B52292B62292B722E558
:1007AF00372404F579A8793196BE310AB43A07F5A2
:1007BF0099020F29310AB40811E8B57905319687E6
:1007CF0080F231960820881880EAB8700531968734
:1007DF0080E2B47E13E8B57902800818E6B42002EF
:1007EF0080F308310AB40DFBF6315508B40DC5A8D6
:1007FF0079C27922C2797A1078002288748A758C2E
:10080F007622A874AA75AC762210790EE63073039F
:10081F008AA0E2FC08B800010A22EC228BA0D19C2E
:10082F0009B900010B221118642060FAD279D32282
:10083F00111811181118B40DFB22D083D082111882
:10084F0088748A758C76E493A2E7547F6C7019A331
:10085F00400B111BBC2EEFE493A330E7FA111B647E
:10086F002060FAD279D3E473E493A330E7FAA87443
:10087F00AA75AC76D279C3E473111824BFFE24E6AF
:10088F005004D279C322110A111824BF24E6500351
:10089F00BC2E561111D27911494442D9500612017A
:1008AF00EF01804111494249D450061201EF0280F5
:1008BF003411495842D950061201EF0380271149CC
:1008CF004942D950061201EF05801A114946524587
:1008DF00D150061201EF06800C1149434841CE500A
:1008EF00071201EF04D11ED3221201EF007F001275
:1008FF0001CBD279013511181205BC4003D27922F0
:10090F0011181205C940F91201CBD279013511180E
:10091F00F5796422600864056004C3D27922111846
:10092F00B579020135120155B40DF3C1591118BC37
:10093F003A03221118BC0D0122D279C1591118BCEA
:10094F003A0122BC0D0122D279D3221118F5781168
:10095F0018F577E578A2E7222073F0D322740D12F1
:10096F000155BC3A04113561C861C1C27A12066AD9
:10097F001201B4D278E4F5797D1020741E307A0418
:10098F00120196ADCE33CECF33CFC57935E0D4C576
:10099F007935E0D4DDEEFFEE33AE79120181EFC48D
:1009AF00120181EF120181307402C278EEC412017C
:1009BF0081C278EE120181307404120196C822317F
:1009CF005A4014AF78AE77C27A3182120196A011D5
:1009DF0018120155B40DF822D2731103203705D523
:1009EF0026028009120147400431CE50EFC2732214
:1009FF00C27A1201963AA012010A120155B42002CE
:100A0F0080F5B42B0280F0B42D04B27A80E9120580
:100A1F00BC501DD21C12010A120155B40D08C21C84
:100A2F001201CB020674B42C0280F31205C940E503
:100A3F001201963FA080B9E4F52EF52F7880F608C5
:100A4F00B8B4FB22C279D2731201B49010008006A1
:100A5F00A3E0A3B40DFBA882AA83E0A2E74014F59C
:100A6F0078A3E0F577EE9577F577EF957845776092
:100A7F000250DD88748A7522A974AB75113F111865
:100A8F00112B20E70D1118112B1118112BB40DF983
:0E0A9F0080EC221111C279111820E7091118FC
:100AAD001118B40DFB80F2E571240328F9E43AFB2B
:100ABD00B41F08E9B4E1004004E10650FC8AA0E24D
:100ACD008BA0D19CE8B57405EAB575012218B8FF65
:100ADD00011A19B9FFE71B80E4A974AB75EF112B4F
:100AED00EE112BA872E6112B08B40DF9221888729D
:100AFD00515340025187A9721909E7B40DFBE9C39F
:100B0D009572F571600451A251E6C27322515340A2
:100B1D000261C102060FAF78AE770201CB5153309F
:100B2D001A03101B04113F61C1C21A61C1E8C0E074
:100B3D00E53724FEF924F9F87D03E76670201819CE
:100B4D00DDF8D0E0F8120497E53724FDF9C3E795F9
:100B5D007909E72074056480637A80957A22D0E064
:100B6D00F8C159C273618CA93787F019E719893714
:100B7D00C0E0C0F0225146C2737581B37537377529
:100B8D0023001201964F4B8D1207AEE6640D60F8EF
:100B9D0011353105502551FA80EE30191E201A1BE2
:100BAD007123AE2CAF2D1201CBD21A611A753737C6
:100BBD001103D273316740BF1018DF12013C11359C
:100BCD00118850261149BD5018B18E1149AC500AEB
:100BDD00D27B12049912067880EF313C12049721D2
:100BED0071313C120483317A216C1149474F54CF36
:100BFD00400B1149474F5355C250087123B18E31E7
:100C0D0042611A11494F4E54494DC55017B18E12BC
:100C1D0001B4EE4F7004C21980068E2C8F2DD2199F
:100C2D003142217111495052494ED4502F314C50FF
:100C3D00271149BB40FB1149AC500512017A80F1D7
:100C4D00314C5016311D4004B18E317A1149AC40F2
:100C5D00EA1149BB40DB313C216C2171114949C678
:100C6D005015B18E1149544845CE1201B4EE4F6066
:100C7D000261C8114361C11149494E5055D45022EA
:100C8D00311D40091188501431FF1204971149BBD1
:100C9D0040EE1149AC500712017A80E4C159313C44
:100CAD00216C11495245545552CE400A11494952B1
:100CBD0045D45006D21B3142612A114943414CCCD7
:100CCD005008B18E3142717421711149464FD25085
:100CDD001E118850471149BD5042B18ED27B12046E
:100CED0099114954CF5035B18E3142712321711173
:100CFD00494E4558D4502711885021313CD27B1292
:100D0D000485120678713A40051201DB612A120141
:100D1D00B41201B41201B41201C52171C1591149A6
:100D2D00454EC450043142617011494C4953D45061
:100D3D0016314C500BB18E515375261531EB618C1C
:100D4D007526FF31E7618C11495255CE5004314261
:100D5D0061BA11494E45D7500D313C75A01079003F
:100D6D0074FFD19C618211495245CD5004114361EC
:100D7D00C11149534C4545D050A2120036313C218A
:100D8D0071B19BD15C507CB19B12075180F5B1D0F4
:100D9D001149AB5007B1D012062880F41149AD505E
:100DAD0007B1D012062E80E811494FD25007B1D0AD
:100DBD0012064480DB1149584FD25047B1D012066C
:100DCD004E80CDD1061149AA5007D1061206BA8020
:100DDD00F41149AF5007D1061206CD80E8114941F3
:100DED004EC45007D10612063A80DA11494D4FC450
:100DFD005011D1061206C980CC1149AD5006D11E35
:100E0D001206582211494E4FD45006D11E120667B4
:0F0E1D00221188500412048322310540E6114946
:100E2C00524EC4500F120729D14D1206C912066A30
:100E3C001206782211494142D35006D14D12066A4E
:100E4C00221149A85007B18E1149A940B7020123BC
:100E5C001149BD50051201EF022211493CBD50054C
:100E6C001201EF062211493CBE50051201EF05227A
:100E7C001149BC50051201EF042211493EBD500529
:100E8C001201EF03221149BE4001221201EF01228F
:100E9C0010A70A10A60D10A51010A41122D2A7108D
:100EAC00A50722D2A610A50122D2A5F322D2A49086
:100EBC001555C0A8C2AFC0E074AAF0901AAAF4F0FD
:100ECC0090155574A0F03070157982B75526E4F75B
:100EDC0009B7AA20F774AAF0901AAA74C0F0D0E04F
:100EEC00F583F3E3F582E3B582FAD0A8107004E33E
:100EFC00B5830722D0E0D0A8C2700201A8B4030ABF
:100F0C00C1593099FDC29975993E3098FDE599C249
:100F1C0098C2E73099FDC299F599B43AE0D2D57AE6
:100F2C0000F16FFCFDF16FF5A0F16FF9F16F60024C
:100F3C00C2D5EC600B7838F16F30D502F608DCF7CF
:100F4C00F16FBA00B530D511ED600E7838E6D19C52
:100F5C000809B9000205A0DDF4740D12015520D565
:100F6C00A1618CD2D1FB3098FDE599C298C2E7C340
:100F7C003099FDC299F59994304085940A400294B9
:100F8C0007240A540F10D1DDC44BC4CA2ACA22C08C
:100F9C00A8C2AF75A0FFA2A69259A24BF1DE92583F
:100FAC00A24AF1DE9257A249F1DE9256A248F1DE36
:100FBC009255F1E09254F1E09253F1E09252F1E04B
:100FCC009251F1E09250D296C296D297532B03D005
:0B0FDC00A8229297D296C296A2A622ED
:01100000FFF0
:101FE10000000000000000000002003F320000007D
:0E1FF1000000000000000000000000020000E0
:00000001FF
